:020000020000FC
:100000000AC018951895189518951895189518956B
:1000100018951895189500E00EBF0FE50DBF00E08C
:1000200018ED1CBF06BF03E001B901E002BB04E00C
:1000300000BB05E00ABF0FE1B6D114D078948895D3
:100040000000F89402990BC011D00FEFACD10FEF64
:10005000AAD10FEFA8D1E5D00FE1A5D130D102D0C0
:100060007894EDCF3327442771E00895B3D060A989
:10007000BBD061A9AFD040FDACC021E026A962A9E8
:1000800064A9B2D040FDA5C021E02EA963A965A94D
:100090003395770F9FD040FD9CC086A19EA138303C
:1000A000D0F087A19FA13031B0F088A190A3383162
:1000B00090F089A191A3303270F08AA192A33832D6
:1000C00050F08BA193A3303330F08CA194A338333C
:1000D00010F08DA195A352A15617A0F4252F2695B7
:1000E000250F621741FF18F462A9872B1AC04260DE
:1000F000882786A987A988A989A98AA98BA98CA9F3
:100100008DA9F2CF54A1561708F064A922A1122F8D
:1001100026952695121B161740F34260172F10954F
:10012000812362D040FD26C053A15617A0F4252F8D
:100130002695250F621742FF18F463A9972B1AC062
:10014000446099279EA99FA990AB91AB92AB93ABCA
:1001500094AB95ABF2CF55A1561708F065A923A132
:10016000122F26952695121B161740F34460172F61
:1001700010959123383068F0303170F0383178F0D4
:10018000303280F0383288F0303390F0383398F0E5
:1001900015C086A99EA914C087A99FA911C088A9C6
:1001A00090AB0EC089A991AB0BC08AA992AB08C0D5
:1001B0008BA993AB05C08CA994AB02C08DA995AB5C
:1001C0003395303430F440FD04C0770F09F471E00A
:1001D00061CF089560E003E80150F1F763956F3F48
:1001E00069F0029BF8CF089560E003E80150F1F751
:1001F00063956F3F19F00299F8CF089541E0089593
:1002000041FF06C004A112A1100F169514A912A94E
:1002100042FF06C005A113A1100F169515A913A939
:10022000089560A138D061A145D04FEF86A19EA16D
:1002300015C087A19FA112C088A190A30FC089A15A
:1002400091A30CC08AA192A309C08BA193A306C05D
:100250008CA194A303C08DA195A300C0439543171F
:10026000C8F464A180FD62A116D065A190FD63A1D0
:1002700021D04730F1F24F30F9F2473101F34F31DD
:1002800009F3473211F34F3219F3473321F38695BF
:100290009695E4CF089512E007D006D005D004D09B
:1002A0006A95D1F7119808950BE17AD022B12127F0
:1002B00022B9089501E874D06A95E1F7089500E441
:1002C0000EBD2FD022D02DD0B6E053D003E06BD09E
:1002D00050D003E068D0B2E148D003E064D021D030
:1002E00026D01FD012D01DD0B6E04BD003E05BD09B
:1002F00038D003E058D0BCE038D0B3E032D02DD0B5
:1003000003E051D00ED013D00895B6E036D003E00C
:100310004AD033D003E047D0B2E12BD003E043D042
:100320000895B3E016D019D020D017D00895B9E0C1
:100330001CD01FD0B9E015D0B3E00FD0B6E009D083
:1003400003E031D006D0BCE014D00FD003E02BD0B6
:10035000089515E200EA19D0089511E204E815D0D5
:1003600008951DE10CED11D008951CE10FE20DD0B0
:10037000089519E10CE109D0089516E100E605D0D1
:10038000089512E100ED01D0089517BD06BD09E002
:100390000DBD0B2F08D008E00DBD00E002B9089597
:1003A0000150F1F708951F932F931FEF2FEF215066
:0C03B00010400040E1F72F911F910895CC
:00000001FF
